{
  "_format": "hh-sol-artifact-1",
  "contractName": "Cryptolympians",
  "sourceName": "contracts/Cryptolympians.sol",
  "abi": [
    {
      "inputs": [],
      "stateMutability": "nonpayable",
      "type": "constructor"
    },
    {
      "anonymous": false,
      "inputs": [
        {
          "indexed": true,
          "internalType": "address",
          "name": "owner",
          "type": "address"
        },
        {
          "indexed": true,
          "internalType": "address",
          "name": "approved",
          "type": "address"
        },
        {
          "indexed": true,
          "internalType": "uint256",
          "name": "tokenId",
          "type": "uint256"
        }
      ],
      "name": "Approval",
      "type": "event"
    },
    {
      "anonymous": false,
      "inputs": [
        {
          "indexed": true,
          "internalType": "address",
          "name": "owner",
          "type": "address"
        },
        {
          "indexed": true,
          "internalType": "address",
          "name": "operator",
          "type": "address"
        },
        {
          "indexed": false,
          "internalType": "bool",
          "name": "approved",
          "type": "bool"
        }
      ],
      "name": "ApprovalForAll",
      "type": "event"
    },
    {
      "anonymous": false,
      "inputs": [
        {
          "indexed": false,
          "internalType": "address",
          "name": "from",
          "type": "address"
        },
        {
          "indexed": false,
          "internalType": "uint256",
          "name": "amount",
          "type": "uint256"
        },
        {
          "indexed": false,
          "internalType": "uint256",
          "name": "auctionIndex",
          "type": "uint256"
        }
      ],
      "name": "Bid",
      "type": "event"
    },
    {
      "anonymous": false,
      "inputs": [
        {
          "indexed": true,
          "internalType": "address",
          "name": "previousOwner",
          "type": "address"
        },
        {
          "indexed": true,
          "internalType": "address",
          "name": "newOwner",
          "type": "address"
        }
      ],
      "name": "OwnershipTransferred",
      "type": "event"
    },
    {
      "anonymous": false,
      "inputs": [
        {
          "indexed": true,
          "internalType": "address",
          "name": "from",
          "type": "address"
        },
        {
          "indexed": true,
          "internalType": "address",
          "name": "to",
          "type": "address"
        },
        {
          "indexed": true,
          "internalType": "uint256",
          "name": "tokenId",
          "type": "uint256"
        }
      ],
      "name": "Transfer",
      "type": "event"
    },
    {
      "inputs": [
        {
          "internalType": "address",
          "name": "to",
          "type": "address"
        },
        {
          "internalType": "uint256",
          "name": "tokenId",
          "type": "uint256"
        }
      ],
      "name": "approve",
      "outputs": [],
      "stateMutability": "nonpayable",
      "type": "function"
    },
    {
      "inputs": [],
      "name": "auctionCount",
      "outputs": [
        {
          "internalType": "uint256",
          "name": "_value",
          "type": "uint256"
        }
      ],
      "stateMutability": "view",
      "type": "function"
    },
    {
      "inputs": [
        {
          "internalType": "uint256",
          "name": "",
          "type": "uint256"
        }
      ],
      "name": "auctions",
      "outputs": [
        {
          "internalType": "uint256",
          "name": "tokenID",
          "type": "uint256"
        },
        {
          "internalType": "address payable",
          "name": "winner",
          "type": "address"
        },
        {
          "internalType": "uint256",
          "name": "winningBid",
          "type": "uint256"
        },
        {
          "internalType": "uint256",
          "name": "startTime",
          "type": "uint256"
        },
        {
          "internalType": "uint256",
          "name": "endTime",
          "type": "uint256"
        }
      ],
      "stateMutability": "view",
      "type": "function"
    },
    {
      "inputs": [
        {
          "internalType": "address",
          "name": "owner",
          "type": "address"
        }
      ],
      "name": "balanceOf",
      "outputs": [
        {
          "internalType": "uint256",
          "name": "",
          "type": "uint256"
        }
      ],
      "stateMutability": "view",
      "type": "function"
    },
    {
      "inputs": [
        {
          "internalType": "uint256",
          "name": "auctionIndex",
          "type": "uint256"
        }
      ],
      "name": "claim",
      "outputs": [],
      "stateMutability": "nonpayable",
      "type": "function"
    },
    {
      "inputs": [
        {
          "internalType": "uint256",
          "name": "tokenId",
          "type": "uint256"
        },
        {
          "internalType": "uint256",
          "name": "startTime",
          "type": "uint256"
        },
        {
          "internalType": "uint256",
          "name": "durationHours",
          "type": "uint256"
        }
      ],
      "name": "createAuction",
      "outputs": [
        {
          "internalType": "uint256",
          "name": "",
          "type": "uint256"
        }
      ],
      "stateMutability": "nonpayable",
      "type": "function"
    },
    {
      "inputs": [
        {
          "internalType": "uint256",
          "name": "tokenId",
          "type": "uint256"
        }
      ],
      "name": "getApproved",
      "outputs": [
        {
          "internalType": "address",
          "name": "",
          "type": "address"
        }
      ],
      "stateMutability": "view",
      "type": "function"
    },
    {
      "inputs": [
        {
          "internalType": "address",
          "name": "owner",
          "type": "address"
        },
        {
          "internalType": "address",
          "name": "operator",
          "type": "address"
        }
      ],
      "name": "isApprovedForAll",
      "outputs": [
        {
          "internalType": "bool",
          "name": "",
          "type": "bool"
        }
      ],
      "stateMutability": "view",
      "type": "function"
    },
    {
      "inputs": [],
      "name": "minBid",
      "outputs": [
        {
          "internalType": "uint256",
          "name": "",
          "type": "uint256"
        }
      ],
      "stateMutability": "view",
      "type": "function"
    },
    {
      "inputs": [],
      "name": "mintNft",
      "outputs": [
        {
          "internalType": "uint256",
          "name": "",
          "type": "uint256"
        }
      ],
      "stateMutability": "nonpayable",
      "type": "function"
    },
    {
      "inputs": [],
      "name": "name",
      "outputs": [
        {
          "internalType": "string",
          "name": "",
          "type": "string"
        }
      ],
      "stateMutability": "view",
      "type": "function"
    },
    {
      "inputs": [],
      "name": "nextTokenId",
      "outputs": [
        {
          "internalType": "uint256",
          "name": "_value",
          "type": "uint256"
        }
      ],
      "stateMutability": "view",
      "type": "function"
    },
    {
      "inputs": [
        {
          "internalType": "address",
          "name": "",
          "type": "address"
        },
        {
          "internalType": "address",
          "name": "",
          "type": "address"
        },
        {
          "internalType": "uint256",
          "name": "",
          "type": "uint256"
        },
        {
          "internalType": "bytes",
          "name": "",
          "type": "bytes"
        }
      ],
      "name": "onERC721Received",
      "outputs": [
        {
          "internalType": "bytes4",
          "name": "",
          "type": "bytes4"
        }
      ],
      "stateMutability": "pure",
      "type": "function"
    },
    {
      "inputs": [],
      "name": "owner",
      "outputs": [
        {
          "internalType": "address",
          "name": "",
          "type": "address"
        }
      ],
      "stateMutability": "view",
      "type": "function"
    },
    {
      "inputs": [
        {
          "internalType": "uint256",
          "name": "tokenId",
          "type": "uint256"
        }
      ],
      "name": "ownerOf",
      "outputs": [
        {
          "internalType": "address",
          "name": "",
          "type": "address"
        }
      ],
      "stateMutability": "view",
      "type": "function"
    },
    {
      "inputs": [
        {
          "internalType": "uint256",
          "name": "auctionIndex",
          "type": "uint256"
        }
      ],
      "name": "placeBid",
      "outputs": [],
      "stateMutability": "payable",
      "type": "function"
    },
    {
      "inputs": [],
      "name": "renounceOwnership",
      "outputs": [],
      "stateMutability": "nonpayable",
      "type": "function"
    },
    {
      "inputs": [],
      "name": "reservePrice",
      "outputs": [
        {
          "internalType": "uint256",
          "name": "",
          "type": "uint256"
        }
      ],
      "stateMutability": "view",
      "type": "function"
    },
    {
      "inputs": [
        {
          "internalType": "address",
          "name": "from",
          "type": "address"
        },
        {
          "internalType": "address",
          "name": "to",
          "type": "address"
        },
        {
          "internalType": "uint256",
          "name": "tokenId",
          "type": "uint256"
        }
      ],
      "name": "safeTransferFrom",
      "outputs": [],
      "stateMutability": "nonpayable",
      "type": "function"
    },
    {
      "inputs": [
        {
          "internalType": "address",
          "name": "from",
          "type": "address"
        },
        {
          "internalType": "address",
          "name": "to",
          "type": "address"
        },
        {
          "internalType": "uint256",
          "name": "tokenId",
          "type": "uint256"
        },
        {
          "internalType": "bytes",
          "name": "_data",
          "type": "bytes"
        }
      ],
      "name": "safeTransferFrom",
      "outputs": [],
      "stateMutability": "nonpayable",
      "type": "function"
    },
    {
      "inputs": [
        {
          "internalType": "address",
          "name": "operator",
          "type": "address"
        },
        {
          "internalType": "bool",
          "name": "approved",
          "type": "bool"
        }
      ],
      "name": "setApprovalForAll",
      "outputs": [],
      "stateMutability": "nonpayable",
      "type": "function"
    },
    {
      "inputs": [
        {
          "internalType": "uint256",
          "name": "newMinBid",
          "type": "uint256"
        }
      ],
      "name": "setMinBid",
      "outputs": [],
      "stateMutability": "nonpayable",
      "type": "function"
    },
    {
      "inputs": [
        {
          "internalType": "uint256",
          "name": "newReservePrice",
          "type": "uint256"
        }
      ],
      "name": "setReservePrice",
      "outputs": [],
      "stateMutability": "nonpayable",
      "type": "function"
    },
    {
      "inputs": [
        {
          "internalType": "bytes4",
          "name": "interfaceId",
          "type": "bytes4"
        }
      ],
      "name": "supportsInterface",
      "outputs": [
        {
          "internalType": "bool",
          "name": "",
          "type": "bool"
        }
      ],
      "stateMutability": "view",
      "type": "function"
    },
    {
      "inputs": [],
      "name": "symbol",
      "outputs": [
        {
          "internalType": "string",
          "name": "",
          "type": "string"
        }
      ],
      "stateMutability": "view",
      "type": "function"
    },
    {
      "inputs": [
        {
          "internalType": "uint256",
          "name": "tokenId",
          "type": "uint256"
        }
      ],
      "name": "tokenURI",
      "outputs": [
        {
          "internalType": "string",
          "name": "",
          "type": "string"
        }
      ],
      "stateMutability": "view",
      "type": "function"
    },
    {
      "inputs": [
        {
          "internalType": "address",
          "name": "from",
          "type": "address"
        },
        {
          "internalType": "address",
          "name": "to",
          "type": "address"
        },
        {
          "internalType": "uint256",
          "name": "tokenId",
          "type": "uint256"
        }
      ],
      "name": "transferFrom",
      "outputs": [],
      "stateMutability": "nonpayable",
      "type": "function"
    },
    {
      "inputs": [
        {
          "internalType": "address",
          "name": "newOwner",
          "type": "address"
        }
      ],
      "name": "transferOwnership",
      "outputs": [],
      "stateMutability": "nonpayable",
      "type": "function"
    },
    {
      "inputs": [],
      "name": "withdraw",
      "outputs": [],
      "stateMutability": "nonpayable",
      "type": "function"
    },
    {
      "stateMutability": "payable",
      "type": "receive"
    }
  ],
  "bytecode": "0x60806040523480156200001157600080fd5b506040518060400160405280600e81526020017f43727970746f6c796d7069616e730000000000000000000000000000000000008152506040518060400160405280600581526020017f4f4c594d5000000000000000000000000000000000000000000000000000000081525081600090805190602001906200009692919062000171565b508060019080519060200190620000af92919062000171565b5050506000620000c46200016960201b60201c565b905080600660006101000a81548173ffffffffffffffffffffffffffffffffffffffff021916908373ffffffffffffffffffffffffffffffffffffffff1602179055508073ffffffffffffffffffffffffffffffffffffffff16600073ffffffffffffffffffffffffffffffffffffffff167f8be0079c531659141344cd1fd0a4f28419497f9722a3daafe3b4186f6b6457e060405160405180910390a35062000286565b600033905090565b8280546200017f9062000221565b90600052602060002090601f016020900481019282620001a35760008555620001ef565b82601f10620001be57805160ff1916838001178555620001ef565b82800160010185558215620001ef579182015b82811115620001ee578251825591602001919060010190620001d1565b5b509050620001fe919062000202565b5090565b5b808211156200021d57600081600090555060010162000203565b5090565b600060028204905060018216806200023a57607f821691505b6020821081141562000251576200025062000257565b5b50919050565b7f4e487b7100000000000000000000000000000000000000000000000000000000600052602260045260246000fd5b613b9480620002966000396000f3fe6080604052600436106101c65760003560e01c806370a08231116100f7578063b88d4fde11610095578063ce9c7c0d11610064578063ce9c7c0d14610654578063db2e1eed1461067d578063e985e9c5146106a8578063f2fde38b146106e5576101cd565b8063b88d4fde14610586578063c2229fea146105af578063c87b56dd146105da578063cda4beef14610617576101cd565b80638da5cb5b116100d15780638da5cb5b146104eb57806395d89b41146105165780639979ef4514610541578063a22cb4651461055d576101cd565b806370a082311461046c578063715018a6146104a957806375794a3c146104c0576101cd565b80632ad71573116101645780633e109a191161013e5780633e109a191461039a57806342842e0e146103c5578063571a26a0146103ee5780636352211e1461042f576101cd565b80632ad715731461032f578063379607f51461035a5780633ccfd60b14610383576101cd565b8063095ea7b3116101a0578063095ea7b31461027757806312874688146102a0578063150b7a02146102c957806323b872dd14610306576101cd565b806301ffc9a7146101d257806306fdde031461020f578063081812fc1461023a576101cd565b366101cd57005b600080fd5b3480156101de57600080fd5b506101f960048036038101906101f49190612aee565b61070e565b60405161020691906133d6565b60405180910390f35b34801561021b57600080fd5b506102246107f0565b604051610231919061340c565b60405180910390f35b34801561024657600080fd5b50610261600480360381019061025c9190612b40565b610882565b60405161026e9190613338565b60405180910390f35b34801561028357600080fd5b5061029e60048036038101906102999190612ab2565b610907565b005b3480156102ac57600080fd5b506102c760048036038101906102c29190612b40565b610a1f565b005b3480156102d557600080fd5b506102f060048036038101906102eb919061297b565b610aa5565b6040516102fd91906133f1565b60405180910390f35b34801561031257600080fd5b5061032d6004803603810190610328919061292c565b610ad3565b005b34801561033b57600080fd5b50610344610b33565b604051610351919061366e565b60405180910390f35b34801561036657600080fd5b50610381600480360381019061037c9190612b40565b610b3f565b005b34801561038f57600080fd5b50610398610cc3565b005b3480156103a657600080fd5b506103af610e0f565b6040516103bc919061366e565b60405180910390f35b3480156103d157600080fd5b506103ec60048036038101906103e7919061292c565b610e15565b005b3480156103fa57600080fd5b5061041560048036038101906104109190612b40565b610e35565b604051610426959493929190613689565b60405180910390f35b34801561043b57600080fd5b5061045660048036038101906104519190612b40565b610e9b565b6040516104639190613338565b60405180910390f35b34801561047857600080fd5b50610493600480360381019061048e91906128c7565b610f4d565b6040516104a0919061366e565b60405180910390f35b3480156104b557600080fd5b506104be611005565b005b3480156104cc57600080fd5b506104d5611142565b6040516104e2919061366e565b60405180910390f35b3480156104f757600080fd5b5061050061114e565b60405161050d9190613338565b60405180910390f35b34801561052257600080fd5b5061052b611178565b604051610538919061340c565b60405180910390f35b61055b60048036038101906105569190612b40565b61120a565b005b34801561056957600080fd5b50610584600480360381019061057f9190612a76565b611430565b005b34801561059257600080fd5b506105ad60048036038101906105a891906129fb565b6115b1565b005b3480156105bb57600080fd5b506105c4611613565b6040516105d1919061366e565b60405180910390f35b3480156105e657600080fd5b5061060160048036038101906105fc9190612b40565b6116ba565b60405161060e919061340c565b60405180910390f35b34801561062357600080fd5b5061063e60048036038101906106399190612b69565b611761565b60405161064b919061366e565b60405180910390f35b34801561066057600080fd5b5061067b60048036038101906106769190612b40565b6119cc565b005b34801561068957600080fd5b50610692611a52565b60405161069f919061366e565b60405180910390f35b3480156106b457600080fd5b506106cf60048036038101906106ca91906128f0565b611a58565b6040516106dc91906133d6565b60405180910390f35b3480156106f157600080fd5b5061070c600480360381019061070791906128c7565b611aec565b005b60007f80ac58cd000000000000000000000000000000000000000000000000000000007bffffffffffffffffffffffffffffffffffffffffffffffffffffffff1916827bffffffffffffffffffffffffffffffffffffffffffffffffffffffff191614806107d957507f5b5e139f000000000000000000000000000000000000000000000000000000007bffffffffffffffffffffffffffffffffffffffffffffffffffffffff1916827bffffffffffffffffffffffffffffffffffffffffffffffffffffffff1916145b806107e957506107e882611c98565b5b9050919050565b6060600080546107ff9061395d565b80601f016020809104026020016040519081016040528092919081815260200182805461082b9061395d565b80156108785780601f1061084d57610100808354040283529160200191610878565b820191906000526020600020905b81548152906001019060200180831161085b57829003601f168201915b5050505050905090565b600061088d82611d02565b6108cc576040517f08c379a00000000000000000000000000000000000000000000000000000000081526004016108c39061358e565b60405180910390fd5b6004600083815260200190815260200160002060009054906101000a900473ffffffffffffffffffffffffffffffffffffffff169050919050565b600061091282610e9b565b90508073ffffffffffffffffffffffffffffffffffffffff168373ffffffffffffffffffffffffffffffffffffffff161415610983576040517f08c379a000000000000000000000000000000000000000000000000000000000815260040161097a9061362e565b60405180910390fd5b8073ffffffffffffffffffffffffffffffffffffffff166109a2611d6e565b73ffffffffffffffffffffffffffffffffffffffff1614806109d157506109d0816109cb611d6e565b611a58565b5b610a10576040517f08c379a0000000000000000000000000000000000000000000000000000000008152600401610a079061350e565b60405180910390fd5b610a1a8383611d76565b505050565b610a27611d6e565b73ffffffffffffffffffffffffffffffffffffffff16610a4561114e565b73ffffffffffffffffffffffffffffffffffffffff1614610a9b576040517f08c379a0000000000000000000000000000000000000000000000000000000008152600401610a92906135ae565b60405180910390fd5b80600a8190555050565b60007f150b7a023d4804d13e8c85fb27262cb750cf6ba9f9dd3bb30d90f482ceeb4b1f905095945050505050565b610ae4610ade611d6e565b82611e2f565b610b23576040517f08c379a0000000000000000000000000000000000000000000000000000000008152600401610b1a9061364e565b60405180910390fd5b610b2e838383611f0d565b505050565b60088060000154905081565b600060098281548110610b7b577f4e487b7100000000000000000000000000000000000000000000000000000000600052603260045260246000fd5b906000526020600020906005020190503373ffffffffffffffffffffffffffffffffffffffff168160010160009054906101000a900473ffffffffffffffffffffffffffffffffffffffff1673ffffffffffffffffffffffffffffffffffffffff1614610be757600080fd5b42816004015410610bf757600080fd5b600b5481600201541015610c79578060010160009054906101000a900473ffffffffffffffffffffffffffffffffffffffff1673ffffffffffffffffffffffffffffffffffffffff166108fc82600201549081150290604051600060405180830381858888f19350505050158015610c73573d6000803e3d6000fd5b50610cbf565b610cbe303383600001546040518060400160405280600281526020017f7b7d000000000000000000000000000000000000000000000000000000000000815250612169565b5b5050565b610ccb611d6e565b73ffffffffffffffffffffffffffffffffffffffff16610ce961114e565b73ffffffffffffffffffffffffffffffffffffffff1614610d3f576040517f08c379a0000000000000000000000000000000000000000000000000000000008152600401610d36906135ae565b60405180910390fd5b6000610d4b60086121c5565b1480610db6575060096001610d6060086121c5565b610d6a9190613861565b81548110610da1577f4e487b7100000000000000000000000000000000000000000000000000000000600052603260045260246000fd5b90600052602060002090600502016004015442115b610dbf57600080fd5b610dc761114e565b73ffffffffffffffffffffffffffffffffffffffff166108fc479081150290604051600060405180830381858888f19350505050158015610e0c573d6000803e3d6000fd5b50565b600a5481565b610e30838383604051806020016040528060008152506115b1565b505050565b60098181548110610e4557600080fd5b90600052602060002090600502016000915090508060000154908060010160009054906101000a900473ffffffffffffffffffffffffffffffffffffffff16908060020154908060030154908060040154905085565b6000806002600084815260200190815260200160002060009054906101000a900473ffffffffffffffffffffffffffffffffffffffff169050600073ffffffffffffffffffffffffffffffffffffffff168173ffffffffffffffffffffffffffffffffffffffff161415610f44576040517f08c379a0000000000000000000000000000000000000000000000000000000008152600401610f3b9061354e565b60405180910390fd5b80915050919050565b60008073ffffffffffffffffffffffffffffffffffffffff168273ffffffffffffffffffffffffffffffffffffffff161415610fbe576040517f08c379a0000000000000000000000000000000000000000000000000000000008152600401610fb59061352e565b60405180910390fd5b600360008373ffffffffffffffffffffffffffffffffffffffff1673ffffffffffffffffffffffffffffffffffffffff168152602001908152602001600020549050919050565b61100d611d6e565b73ffffffffffffffffffffffffffffffffffffffff1661102b61114e565b73ffffffffffffffffffffffffffffffffffffffff1614611081576040517f08c379a0000000000000000000000000000000000000000000000000000000008152600401611078906135ae565b60405180910390fd5b600073ffffffffffffffffffffffffffffffffffffffff16600660009054906101000a900473ffffffffffffffffffffffffffffffffffffffff1673ffffffffffffffffffffffffffffffffffffffff167f8be0079c531659141344cd1fd0a4f28419497f9722a3daafe3b4186f6b6457e060405160405180910390a36000600660006101000a81548173ffffffffffffffffffffffffffffffffffffffff021916908373ffffffffffffffffffffffffffffffffffffffff160217905550565b60078060000154905081565b6000600660009054906101000a900473ffffffffffffffffffffffffffffffffffffffff16905090565b6060600180546111879061395d565b80601f01602080910402602001604051908101604052809291908181526020018280546111b39061395d565b80156112005780601f106111d557610100808354040283529160200191611200565b820191906000526020600020905b8154815290600101906020018083116111e357829003601f168201915b5050505050905090565b600060098281548110611246577f4e487b7100000000000000000000000000000000000000000000000000000000600052603260045260246000fd5b90600052602060002090600502019050806003015442101561129d576040517f08c379a0000000000000000000000000000000000000000000000000000000008152600401611294906134ee565b60405180910390fd5b806004015442106112e3576040517f08c379a00000000000000000000000000000000000000000000000000000000081526004016112da906134ee565b60405180910390fd5b600a5481600201546112f59190613780565b3411611336576040517f08c379a000000000000000000000000000000000000000000000000000000000815260040161132d9061360e565b60405180910390fd5b8060010160009054906101000a900473ffffffffffffffffffffffffffffffffffffffff1673ffffffffffffffffffffffffffffffffffffffff166108fc82600201549081150290604051600060405180830381858888f193505050501580156113a4573d6000803e3d6000fd5b507f19421268847f42dd61705778018ddfc43bcdce8517e7a630acb12f122c7094813334846040516113d89392919061339f565b60405180910390a1338160010160006101000a81548173ffffffffffffffffffffffffffffffffffffffff021916908373ffffffffffffffffffffffffffffffffffffffff1602179055503481600201819055505050565b611438611d6e565b73ffffffffffffffffffffffffffffffffffffffff168273ffffffffffffffffffffffffffffffffffffffff1614156114a6576040517f08c379a000000000000000000000000000000000000000000000000000000000815260040161149d906134ae565b60405180910390fd5b80600560006114b3611d6e565b73ffffffffffffffffffffffffffffffffffffffff1673ffffffffffffffffffffffffffffffffffffffff16815260200190815260200160002060008473ffffffffffffffffffffffffffffffffffffffff1673ffffffffffffffffffffffffffffffffffffffff16815260200190815260200160002060006101000a81548160ff0219169083151502179055508173ffffffffffffffffffffffffffffffffffffffff16611560611d6e565b73ffffffffffffffffffffffffffffffffffffffff167f17307eab39ab6107e8899845ad3d59bd9653f200f220920489ca2b5937696c31836040516115a591906133d6565b60405180910390a35050565b6115c26115bc611d6e565b83611e2f565b611601576040517f08c379a00000000000000000000000000000000000000000000000000000000081526004016115f89061364e565b60405180910390fd5b61160d84848484612169565b50505050565b600061161d611d6e565b73ffffffffffffffffffffffffffffffffffffffff1661163b61114e565b73ffffffffffffffffffffffffffffffffffffffff1614611691576040517f08c379a0000000000000000000000000000000000000000000000000000000008152600401611688906135ae565b60405180910390fd5b600061169d60076121c5565b90506116a930826121d3565b6116b360076121f1565b8091505090565b60606116c582611d02565b611704576040517f08c379a00000000000000000000000000000000000000000000000000000000081526004016116fb906135ee565b60405180910390fd5b600061170e612207565b9050600081511161172e5760405180602001604052806000815250611759565b8061173884612227565b604051602001611749929190613314565b6040516020818303038152906040525b915050919050565b600061176b611d6e565b73ffffffffffffffffffffffffffffffffffffffff1661178961114e565b73ffffffffffffffffffffffffffffffffffffffff16146117df576040517f08c379a00000000000000000000000000000000000000000000000000000000081526004016117d6906135ae565b60405180910390fd5b60006117eb60086121c5565b14806118565750826009600161180160086121c5565b61180b9190613861565b81548110611842577f4e487b7100000000000000000000000000000000000000000000000000000000600052603260045260246000fd5b906000526020600020906005020160040154105b61185f57600080fd5b61186884611d02565b61187157600080fd5b61187a84610e9b565b73ffffffffffffffffffffffffffffffffffffffff163073ffffffffffffffffffffffffffffffffffffffff16146118b157600080fd5b60096040518060a001604052808681526020013073ffffffffffffffffffffffffffffffffffffffff16815260200160008152602001858152602001610e10856118fb9190613807565b866119069190613780565b81525090806001815401808255809150506001900390600052602060002090600502016000909190919091506000820151816000015560208201518160010160006101000a81548173ffffffffffffffffffffffffffffffffffffffff021916908373ffffffffffffffffffffffffffffffffffffffff16021790555060408201518160020155606082015181600301556080820151816004015550506119ad60086121f1565b60016119b960086121c5565b6119c39190613861565b90509392505050565b6119d4611d6e565b73ffffffffffffffffffffffffffffffffffffffff166119f261114e565b73ffffffffffffffffffffffffffffffffffffffff1614611a48576040517f08c379a0000000000000000000000000000000000000000000000000000000008152600401611a3f906135ae565b60405180910390fd5b80600b8190555050565b600b5481565b6000600560008473ffffffffffffffffffffffffffffffffffffffff1673ffffffffffffffffffffffffffffffffffffffff16815260200190815260200160002060008373ffffffffffffffffffffffffffffffffffffffff1673ffffffffffffffffffffffffffffffffffffffff16815260200190815260200160002060009054906101000a900460ff16905092915050565b611af4611d6e565b73ffffffffffffffffffffffffffffffffffffffff16611b1261114e565b73ffffffffffffffffffffffffffffffffffffffff1614611b68576040517f08c379a0000000000000000000000000000000000000000000000000000000008152600401611b5f906135ae565b60405180910390fd5b600073ffffffffffffffffffffffffffffffffffffffff168173ffffffffffffffffffffffffffffffffffffffff161415611bd8576040517f08c379a0000000000000000000000000000000000000000000000000000000008152600401611bcf9061344e565b60405180910390fd5b8073ffffffffffffffffffffffffffffffffffffffff16600660009054906101000a900473ffffffffffffffffffffffffffffffffffffffff1673ffffffffffffffffffffffffffffffffffffffff167f8be0079c531659141344cd1fd0a4f28419497f9722a3daafe3b4186f6b6457e060405160405180910390a380600660006101000a81548173ffffffffffffffffffffffffffffffffffffffff021916908373ffffffffffffffffffffffffffffffffffffffff16021790555050565b60007f01ffc9a7000000000000000000000000000000000000000000000000000000007bffffffffffffffffffffffffffffffffffffffffffffffffffffffff1916827bffffffffffffffffffffffffffffffffffffffffffffffffffffffff1916149050919050565b60008073ffffffffffffffffffffffffffffffffffffffff166002600084815260200190815260200160002060009054906101000a900473ffffffffffffffffffffffffffffffffffffffff1673ffffffffffffffffffffffffffffffffffffffff1614159050919050565b600033905090565b816004600083815260200190815260200160002060006101000a81548173ffffffffffffffffffffffffffffffffffffffff021916908373ffffffffffffffffffffffffffffffffffffffff160217905550808273ffffffffffffffffffffffffffffffffffffffff16611de983610e9b565b73ffffffffffffffffffffffffffffffffffffffff167f8c5be1e5ebec7d5bd14f71427d1e84f3dd0314c0f7b2291e5b200ac8c7c3b92560405160405180910390a45050565b6000611e3a82611d02565b611e79576040517f08c379a0000000000000000000000000000000000000000000000000000000008152600401611e70906134ce565b60405180910390fd5b6000611e8483610e9b565b90508073ffffffffffffffffffffffffffffffffffffffff168473ffffffffffffffffffffffffffffffffffffffff161480611ef357508373ffffffffffffffffffffffffffffffffffffffff16611edb84610882565b73ffffffffffffffffffffffffffffffffffffffff16145b80611f045750611f038185611a58565b5b91505092915050565b8273ffffffffffffffffffffffffffffffffffffffff16611f2d82610e9b565b73ffffffffffffffffffffffffffffffffffffffff1614611f83576040517f08c379a0000000000000000000000000000000000000000000000000000000008152600401611f7a906135ce565b60405180910390fd5b600073ffffffffffffffffffffffffffffffffffffffff168273ffffffffffffffffffffffffffffffffffffffff161415611ff3576040517f08c379a0000000000000000000000000000000000000000000000000000000008152600401611fea9061348e565b60405180910390fd5b611ffe8383836123d4565b612009600082611d76565b6001600360008573ffffffffffffffffffffffffffffffffffffffff1673ffffffffffffffffffffffffffffffffffffffff16815260200190815260200160002060008282546120599190613861565b925050819055506001600360008473ffffffffffffffffffffffffffffffffffffffff1673ffffffffffffffffffffffffffffffffffffffff16815260200190815260200160002060008282546120b09190613780565b92505081905550816002600083815260200190815260200160002060006101000a81548173ffffffffffffffffffffffffffffffffffffffff021916908373ffffffffffffffffffffffffffffffffffffffff160217905550808273ffffffffffffffffffffffffffffffffffffffff168473ffffffffffffffffffffffffffffffffffffffff167fddf252ad1be2c89b69c2b068fc378daa952ba7f163c4a11628f55a4df523b3ef60405160405180910390a4505050565b612174848484611f0d565b612180848484846123d9565b6121bf576040517f08c379a00000000000000000000000000000000000000000000000000000000081526004016121b69061342e565b60405180910390fd5b50505050565b600081600001549050919050565b6121ed828260405180602001604052806000815250612570565b5050565b6001816000016000828254019250508190555050565b60606040518060600160405280602c8152602001613b33602c9139905090565b6060600082141561226f576040518060400160405280600181526020017f300000000000000000000000000000000000000000000000000000000000000081525090506123cf565b600082905060005b600082146122a157808061228a9061398f565b915050600a8261229a91906137d6565b9150612277565b60008167ffffffffffffffff8111156122e3577f4e487b7100000000000000000000000000000000000000000000000000000000600052604160045260246000fd5b6040519080825280601f01601f1916602001820160405280156123155781602001600182028036833780820191505090505b5090505b600085146123c85760018261232e9190613861565b9150600a8561233d91906139d8565b60306123499190613780565b60f81b818381518110612385577f4e487b7100000000000000000000000000000000000000000000000000000000600052603260045260246000fd5b60200101907effffffffffffffffffffffffffffffffffffffffffffffffffffffffffffff1916908160001a905350600a856123c191906137d6565b9450612319565b8093505050505b919050565b505050565b60006123fa8473ffffffffffffffffffffffffffffffffffffffff166125cb565b15612563578373ffffffffffffffffffffffffffffffffffffffff1663150b7a02612423611d6e565b8786866040518563ffffffff1660e01b81526004016124459493929190613353565b602060405180830381600087803b15801561245f57600080fd5b505af192505050801561249057506040513d601f19601f8201168201806040525081019061248d9190612b17565b60015b612513573d80600081146124c0576040519150601f19603f3d011682016040523d82523d6000602084013e6124c5565b606091505b5060008151141561250b576040517f08c379a00000000000000000000000000000000000000000000000000000000081526004016125029061342e565b60405180910390fd5b805181602001fd5b63150b7a0260e01b7bffffffffffffffffffffffffffffffffffffffffffffffffffffffff1916817bffffffffffffffffffffffffffffffffffffffffffffffffffffffff191614915050612568565b600190505b949350505050565b61257a83836125de565b61258760008484846123d9565b6125c6576040517f08c379a00000000000000000000000000000000000000000000000000000000081526004016125bd9061342e565b60405180910390fd5b505050565b600080823b905060008111915050919050565b600073ffffffffffffffffffffffffffffffffffffffff168273ffffffffffffffffffffffffffffffffffffffff16141561264e576040517f08c379a00000000000000000000000000000000000000000000000000000000081526004016126459061356e565b60405180910390fd5b61265781611d02565b15612697576040517f08c379a000000000000000000000000000000000000000000000000000000000815260040161268e9061346e565b60405180910390fd5b6126a3600083836123d4565b6001600360008473ffffffffffffffffffffffffffffffffffffffff1673ffffffffffffffffffffffffffffffffffffffff16815260200190815260200160002060008282546126f39190613780565b92505081905550816002600083815260200190815260200160002060006101000a81548173ffffffffffffffffffffffffffffffffffffffff021916908373ffffffffffffffffffffffffffffffffffffffff160217905550808273ffffffffffffffffffffffffffffffffffffffff16600073ffffffffffffffffffffffffffffffffffffffff167fddf252ad1be2c89b69c2b068fc378daa952ba7f163c4a11628f55a4df523b3ef60405160405180910390a45050565b60006127bf6127ba8461370d565b6136dc565b9050828152602081018484840111156127d757600080fd5b6127e284828561391b565b509392505050565b6000813590506127f981613ad6565b92915050565b60008135905061280e81613aed565b92915050565b60008135905061282381613b04565b92915050565b60008151905061283881613b04565b92915050565b60008083601f84011261285057600080fd5b8235905067ffffffffffffffff81111561286957600080fd5b60208301915083600182028301111561288157600080fd5b9250929050565b600082601f83011261289957600080fd5b81356128a98482602086016127ac565b91505092915050565b6000813590506128c181613b1b565b92915050565b6000602082840312156128d957600080fd5b60006128e7848285016127ea565b91505092915050565b6000806040838503121561290357600080fd5b6000612911858286016127ea565b9250506020612922858286016127ea565b9150509250929050565b60008060006060848603121561294157600080fd5b600061294f868287016127ea565b9350506020612960868287016127ea565b9250506040612971868287016128b2565b9150509250925092565b60008060008060006080868803121561299357600080fd5b60006129a1888289016127ea565b95505060206129b2888289016127ea565b94505060406129c3888289016128b2565b935050606086013567ffffffffffffffff8111156129e057600080fd5b6129ec8882890161283e565b92509250509295509295909350565b60008060008060808587031215612a1157600080fd5b6000612a1f878288016127ea565b9450506020612a30878288016127ea565b9350506040612a41878288016128b2565b925050606085013567ffffffffffffffff811115612a5e57600080fd5b612a6a87828801612888565b91505092959194509250565b60008060408385031215612a8957600080fd5b6000612a97858286016127ea565b9250506020612aa8858286016127ff565b9150509250929050565b60008060408385031215612ac557600080fd5b6000612ad3858286016127ea565b9250506020612ae4858286016128b2565b9150509250929050565b600060208284031215612b0057600080fd5b6000612b0e84828501612814565b91505092915050565b600060208284031215612b2957600080fd5b6000612b3784828501612829565b91505092915050565b600060208284031215612b5257600080fd5b6000612b60848285016128b2565b91505092915050565b600080600060608486031215612b7e57600080fd5b6000612b8c868287016128b2565b9350506020612b9d868287016128b2565b9250506040612bae868287016128b2565b9150509250925092565b612bc1816138a7565b82525050565b612bd081613895565b82525050565b612bdf816138b9565b82525050565b612bee816138c5565b82525050565b6000612bff8261373d565b612c098185613753565b9350612c1981856020860161392a565b612c2281613ac5565b840191505092915050565b6000612c3882613748565b612c428185613764565b9350612c5281856020860161392a565b612c5b81613ac5565b840191505092915050565b6000612c7182613748565b612c7b8185613775565b9350612c8b81856020860161392a565b80840191505092915050565b6000612ca4603283613764565b91507f4552433732313a207472616e7366657220746f206e6f6e20455243373231526560008301527f63656976657220696d706c656d656e74657200000000000000000000000000006020830152604082019050919050565b6000612d0a602683613764565b91507f4f776e61626c653a206e6577206f776e657220697320746865207a65726f206160008301527f64647265737300000000000000000000000000000000000000000000000000006020830152604082019050919050565b6000612d70601c83613764565b91507f4552433732313a20746f6b656e20616c7265616479206d696e746564000000006000830152602082019050919050565b6000612db0602483613764565b91507f4552433732313a207472616e7366657220746f20746865207a65726f2061646460008301527f72657373000000000000000000000000000000000000000000000000000000006020830152604082019050919050565b6000612e16601983613764565b91507f4552433732313a20617070726f766520746f2063616c6c6572000000000000006000830152602082019050919050565b6000612e56602c83613764565b91507f4552433732313a206f70657261746f7220717565727920666f72206e6f6e657860008301527f697374656e7420746f6b656e00000000000000000000000000000000000000006020830152604082019050919050565b6000612ebc602283613764565b91507f42696420647572696e6720616e20696e76616c69642074696d6520706572696f60008301527f642e0000000000000000000000000000000000000000000000000000000000006020830152604082019050919050565b6000612f22603883613764565b91507f4552433732313a20617070726f76652063616c6c6572206973206e6f74206f7760008301527f6e6572206e6f7220617070726f76656420666f7220616c6c00000000000000006020830152604082019050919050565b6000612f88602a83613764565b91507f4552433732313a2062616c616e636520717565727920666f7220746865207a6560008301527f726f2061646472657373000000000000000000000000000000000000000000006020830152604082019050919050565b6000612fee602983613764565b91507f4552433732313a206f776e657220717565727920666f72206e6f6e657869737460008301527f656e7420746f6b656e00000000000000000000000000000000000000000000006020830152604082019050919050565b6000613054602083613764565b91507f4552433732313a206d696e7420746f20746865207a65726f20616464726573736000830152602082019050919050565b6000613094602c83613764565b91507f4552433732313a20617070726f76656420717565727920666f72206e6f6e657860008301527f697374656e7420746f6b656e00000000000000000000000000000000000000006020830152604082019050919050565b60006130fa602083613764565b91507f4f776e61626c653a2063616c6c6572206973206e6f7420746865206f776e65726000830152602082019050919050565b600061313a602983613764565b91507f4552433732313a207472616e73666572206f6620746f6b656e2074686174206960008301527f73206e6f74206f776e00000000000000000000000000000000000000000000006020830152604082019050919050565b60006131a0602f83613764565b91507f4552433732314d657461646174613a2055524920717565727920666f72206e6f60008301527f6e6578697374656e7420746f6b656e00000000000000000000000000000000006020830152604082019050919050565b6000613206601483613764565b91507f426964206e6f74206869676820656e6f7567682e0000000000000000000000006000830152602082019050919050565b6000613246602183613764565b91507f4552433732313a20617070726f76616c20746f2063757272656e74206f776e6560008301527f72000000000000000000000000000000000000000000000000000000000000006020830152604082019050919050565b60006132ac603183613764565b91507f4552433732313a207472616e736665722063616c6c6572206973206e6f74206f60008301527f776e6572206e6f7220617070726f7665640000000000000000000000000000006020830152604082019050919050565b61330e81613911565b82525050565b60006133208285612c66565b915061332c8284612c66565b91508190509392505050565b600060208201905061334d6000830184612bc7565b92915050565b60006080820190506133686000830187612bc7565b6133756020830186612bc7565b6133826040830185613305565b81810360608301526133948184612bf4565b905095945050505050565b60006060820190506133b46000830186612bc7565b6133c16020830185613305565b6133ce6040830184613305565b949350505050565b60006020820190506133eb6000830184612bd6565b92915050565b60006020820190506134066000830184612be5565b92915050565b600060208201905081810360008301526134268184612c2d565b905092915050565b6000602082019050818103600083015261344781612c97565b9050919050565b6000602082019050818103600083015261346781612cfd565b9050919050565b6000602082019050818103600083015261348781612d63565b9050919050565b600060208201905081810360008301526134a781612da3565b9050919050565b600060208201905081810360008301526134c781612e09565b9050919050565b600060208201905081810360008301526134e781612e49565b9050919050565b6000602082019050818103600083015261350781612eaf565b9050919050565b6000602082019050818103600083015261352781612f15565b9050919050565b6000602082019050818103600083015261354781612f7b565b9050919050565b6000602082019050818103600083015261356781612fe1565b9050919050565b6000602082019050818103600083015261358781613047565b9050919050565b600060208201905081810360008301526135a781613087565b9050919050565b600060208201905081810360008301526135c7816130ed565b9050919050565b600060208201905081810360008301526135e78161312d565b9050919050565b6000602082019050818103600083015261360781613193565b9050919050565b60006020820190508181036000830152613627816131f9565b9050919050565b6000602082019050818103600083015261364781613239565b9050919050565b600060208201905081810360008301526136678161329f565b9050919050565b60006020820190506136836000830184613305565b92915050565b600060a08201905061369e6000830188613305565b6136ab6020830187612bb8565b6136b86040830186613305565b6136c56060830185613305565b6136d26080830184613305565b9695505050505050565b6000604051905081810181811067ffffffffffffffff8211171561370357613702613a96565b5b8060405250919050565b600067ffffffffffffffff82111561372857613727613a96565b5b601f19601f8301169050602081019050919050565b600081519050919050565b600081519050919050565b600082825260208201905092915050565b600082825260208201905092915050565b600081905092915050565b600061378b82613911565b915061379683613911565b9250827fffffffffffffffffffffffffffffffffffffffffffffffffffffffffffffffff038211156137cb576137ca613a09565b5b828201905092915050565b60006137e182613911565b91506137ec83613911565b9250826137fc576137fb613a38565b5b828204905092915050565b600061381282613911565b915061381d83613911565b9250817fffffffffffffffffffffffffffffffffffffffffffffffffffffffffffffffff048311821515161561385657613855613a09565b5b828202905092915050565b600061386c82613911565b915061387783613911565b92508282101561388a57613889613a09565b5b828203905092915050565b60006138a0826138f1565b9050919050565b60006138b2826138f1565b9050919050565b60008115159050919050565b60007fffffffff0000000000000000000000000000000000000000000000000000000082169050919050565b600073ffffffffffffffffffffffffffffffffffffffff82169050919050565b6000819050919050565b82818337600083830152505050565b60005b8381101561394857808201518184015260208101905061392d565b83811115613957576000848401525b50505050565b6000600282049050600182168061397557607f821691505b6020821081141561398957613988613a67565b5b50919050565b600061399a82613911565b91507fffffffffffffffffffffffffffffffffffffffffffffffffffffffffffffffff8214156139cd576139cc613a09565b5b600182019050919050565b60006139e382613911565b91506139ee83613911565b9250826139fe576139fd613a38565b5b828206905092915050565b7f4e487b7100000000000000000000000000000000000000000000000000000000600052601160045260246000fd5b7f4e487b7100000000000000000000000000000000000000000000000000000000600052601260045260246000fd5b7f4e487b7100000000000000000000000000000000000000000000000000000000600052602260045260246000fd5b7f4e487b7100000000000000000000000000000000000000000000000000000000600052604160045260246000fd5b6000601f19601f8301169050919050565b613adf81613895565b8114613aea57600080fd5b50565b613af6816138b9565b8114613b0157600080fd5b50565b613b0d816138c5565b8114613b1857600080fd5b50565b613b2481613911565b8114613b2f57600080fd5b5056fe68747470733a2f2f7777772e63727970746f6c796d7069616e732e636f6d2f6170692f746f6b656e3f69643da264697066735822122072a976acca94361019b393e75f7b54d5befac5238162730a347c7926413f7c4464736f6c63430008000033",
  "linkReferences": {},
  "deployedLinkReferences": {}
}