{
  "_format": "hh-sol-artifact-1",
  "contractName": "Cryptolympians",
  "sourceName": "contracts/Cryptolympians.sol",
  "abi": [
    {
      "inputs": [],
      "stateMutability": "nonpayable",
      "type": "constructor"
    },
    {
      "anonymous": false,
      "inputs": [
        {
          "indexed": true,
          "internalType": "address",
          "name": "owner",
          "type": "address"
        },
        {
          "indexed": true,
          "internalType": "address",
          "name": "approved",
          "type": "address"
        },
        {
          "indexed": true,
          "internalType": "uint256",
          "name": "tokenId",
          "type": "uint256"
        }
      ],
      "name": "Approval",
      "type": "event"
    },
    {
      "anonymous": false,
      "inputs": [
        {
          "indexed": true,
          "internalType": "address",
          "name": "owner",
          "type": "address"
        },
        {
          "indexed": true,
          "internalType": "address",
          "name": "operator",
          "type": "address"
        },
        {
          "indexed": false,
          "internalType": "bool",
          "name": "approved",
          "type": "bool"
        }
      ],
      "name": "ApprovalForAll",
      "type": "event"
    },
    {
      "anonymous": false,
      "inputs": [
        {
          "indexed": true,
          "internalType": "address",
          "name": "previousOwner",
          "type": "address"
        },
        {
          "indexed": true,
          "internalType": "address",
          "name": "newOwner",
          "type": "address"
        }
      ],
      "name": "OwnershipTransferred",
      "type": "event"
    },
    {
      "anonymous": false,
      "inputs": [
        {
          "indexed": true,
          "internalType": "address",
          "name": "from",
          "type": "address"
        },
        {
          "indexed": true,
          "internalType": "address",
          "name": "to",
          "type": "address"
        },
        {
          "indexed": true,
          "internalType": "uint256",
          "name": "tokenId",
          "type": "uint256"
        }
      ],
      "name": "Transfer",
      "type": "event"
    },
    {
      "inputs": [
        {
          "internalType": "address",
          "name": "to",
          "type": "address"
        },
        {
          "internalType": "uint256",
          "name": "tokenId",
          "type": "uint256"
        }
      ],
      "name": "approve",
      "outputs": [],
      "stateMutability": "nonpayable",
      "type": "function"
    },
    {
      "inputs": [],
      "name": "auctionCount",
      "outputs": [
        {
          "internalType": "uint256",
          "name": "_value",
          "type": "uint256"
        }
      ],
      "stateMutability": "view",
      "type": "function"
    },
    {
      "inputs": [
        {
          "internalType": "uint256",
          "name": "",
          "type": "uint256"
        }
      ],
      "name": "auctions",
      "outputs": [
        {
          "internalType": "uint256",
          "name": "tokenID",
          "type": "uint256"
        },
        {
          "internalType": "address payable",
          "name": "winner",
          "type": "address"
        },
        {
          "internalType": "uint256",
          "name": "winningBid",
          "type": "uint256"
        },
        {
          "internalType": "uint256",
          "name": "startTime",
          "type": "uint256"
        },
        {
          "internalType": "uint256",
          "name": "endTime",
          "type": "uint256"
        }
      ],
      "stateMutability": "view",
      "type": "function"
    },
    {
      "inputs": [
        {
          "internalType": "address",
          "name": "owner",
          "type": "address"
        }
      ],
      "name": "balanceOf",
      "outputs": [
        {
          "internalType": "uint256",
          "name": "",
          "type": "uint256"
        }
      ],
      "stateMutability": "view",
      "type": "function"
    },
    {
      "inputs": [
        {
          "internalType": "uint256",
          "name": "auctionIndex",
          "type": "uint256"
        }
      ],
      "name": "claim",
      "outputs": [],
      "stateMutability": "nonpayable",
      "type": "function"
    },
    {
      "inputs": [
        {
          "internalType": "uint256",
          "name": "tokenId",
          "type": "uint256"
        },
        {
          "internalType": "uint256",
          "name": "startTime",
          "type": "uint256"
        },
        {
          "internalType": "uint256",
          "name": "durationHours",
          "type": "uint256"
        }
      ],
      "name": "createAuction",
      "outputs": [],
      "stateMutability": "nonpayable",
      "type": "function"
    },
    {
      "inputs": [
        {
          "internalType": "uint256",
          "name": "tokenId",
          "type": "uint256"
        }
      ],
      "name": "getApproved",
      "outputs": [
        {
          "internalType": "address",
          "name": "",
          "type": "address"
        }
      ],
      "stateMutability": "view",
      "type": "function"
    },
    {
      "inputs": [
        {
          "internalType": "address",
          "name": "owner",
          "type": "address"
        },
        {
          "internalType": "address",
          "name": "operator",
          "type": "address"
        }
      ],
      "name": "isApprovedForAll",
      "outputs": [
        {
          "internalType": "bool",
          "name": "",
          "type": "bool"
        }
      ],
      "stateMutability": "view",
      "type": "function"
    },
    {
      "inputs": [],
      "name": "minBid",
      "outputs": [
        {
          "internalType": "uint256",
          "name": "",
          "type": "uint256"
        }
      ],
      "stateMutability": "view",
      "type": "function"
    },
    {
      "inputs": [],
      "name": "mintNft",
      "outputs": [
        {
          "internalType": "uint256",
          "name": "",
          "type": "uint256"
        }
      ],
      "stateMutability": "nonpayable",
      "type": "function"
    },
    {
      "inputs": [],
      "name": "name",
      "outputs": [
        {
          "internalType": "string",
          "name": "",
          "type": "string"
        }
      ],
      "stateMutability": "view",
      "type": "function"
    },
    {
      "inputs": [
        {
          "internalType": "address",
          "name": "",
          "type": "address"
        },
        {
          "internalType": "address",
          "name": "",
          "type": "address"
        },
        {
          "internalType": "uint256",
          "name": "",
          "type": "uint256"
        },
        {
          "internalType": "bytes",
          "name": "",
          "type": "bytes"
        }
      ],
      "name": "onERC721Received",
      "outputs": [
        {
          "internalType": "bytes4",
          "name": "",
          "type": "bytes4"
        }
      ],
      "stateMutability": "pure",
      "type": "function"
    },
    {
      "inputs": [],
      "name": "owner",
      "outputs": [
        {
          "internalType": "address",
          "name": "",
          "type": "address"
        }
      ],
      "stateMutability": "view",
      "type": "function"
    },
    {
      "inputs": [
        {
          "internalType": "uint256",
          "name": "tokenId",
          "type": "uint256"
        }
      ],
      "name": "ownerOf",
      "outputs": [
        {
          "internalType": "address",
          "name": "",
          "type": "address"
        }
      ],
      "stateMutability": "view",
      "type": "function"
    },
    {
      "inputs": [],
      "name": "placeBid",
      "outputs": [],
      "stateMutability": "payable",
      "type": "function"
    },
    {
      "inputs": [],
      "name": "renounceOwnership",
      "outputs": [],
      "stateMutability": "nonpayable",
      "type": "function"
    },
    {
      "inputs": [],
      "name": "reservePrice",
      "outputs": [
        {
          "internalType": "uint256",
          "name": "",
          "type": "uint256"
        }
      ],
      "stateMutability": "view",
      "type": "function"
    },
    {
      "inputs": [
        {
          "internalType": "address",
          "name": "from",
          "type": "address"
        },
        {
          "internalType": "address",
          "name": "to",
          "type": "address"
        },
        {
          "internalType": "uint256",
          "name": "tokenId",
          "type": "uint256"
        }
      ],
      "name": "safeTransferFrom",
      "outputs": [],
      "stateMutability": "nonpayable",
      "type": "function"
    },
    {
      "inputs": [
        {
          "internalType": "address",
          "name": "from",
          "type": "address"
        },
        {
          "internalType": "address",
          "name": "to",
          "type": "address"
        },
        {
          "internalType": "uint256",
          "name": "tokenId",
          "type": "uint256"
        },
        {
          "internalType": "bytes",
          "name": "_data",
          "type": "bytes"
        }
      ],
      "name": "safeTransferFrom",
      "outputs": [],
      "stateMutability": "nonpayable",
      "type": "function"
    },
    {
      "inputs": [
        {
          "internalType": "address",
          "name": "operator",
          "type": "address"
        },
        {
          "internalType": "bool",
          "name": "approved",
          "type": "bool"
        }
      ],
      "name": "setApprovalForAll",
      "outputs": [],
      "stateMutability": "nonpayable",
      "type": "function"
    },
    {
      "inputs": [
        {
          "internalType": "uint256",
          "name": "newMinBid",
          "type": "uint256"
        }
      ],
      "name": "setMinBid",
      "outputs": [],
      "stateMutability": "nonpayable",
      "type": "function"
    },
    {
      "inputs": [
        {
          "internalType": "uint256",
          "name": "newReservePrice",
          "type": "uint256"
        }
      ],
      "name": "setReservePrice",
      "outputs": [],
      "stateMutability": "nonpayable",
      "type": "function"
    },
    {
      "inputs": [
        {
          "internalType": "bytes4",
          "name": "interfaceId",
          "type": "bytes4"
        }
      ],
      "name": "supportsInterface",
      "outputs": [
        {
          "internalType": "bool",
          "name": "",
          "type": "bool"
        }
      ],
      "stateMutability": "view",
      "type": "function"
    },
    {
      "inputs": [],
      "name": "symbol",
      "outputs": [
        {
          "internalType": "string",
          "name": "",
          "type": "string"
        }
      ],
      "stateMutability": "view",
      "type": "function"
    },
    {
      "inputs": [],
      "name": "tokenIds",
      "outputs": [
        {
          "internalType": "uint256",
          "name": "_value",
          "type": "uint256"
        }
      ],
      "stateMutability": "view",
      "type": "function"
    },
    {
      "inputs": [
        {
          "internalType": "uint256",
          "name": "tokenId",
          "type": "uint256"
        }
      ],
      "name": "tokenURI",
      "outputs": [
        {
          "internalType": "string",
          "name": "",
          "type": "string"
        }
      ],
      "stateMutability": "view",
      "type": "function"
    },
    {
      "inputs": [
        {
          "internalType": "address",
          "name": "from",
          "type": "address"
        },
        {
          "internalType": "address",
          "name": "to",
          "type": "address"
        },
        {
          "internalType": "uint256",
          "name": "tokenId",
          "type": "uint256"
        }
      ],
      "name": "transferFrom",
      "outputs": [],
      "stateMutability": "nonpayable",
      "type": "function"
    },
    {
      "inputs": [
        {
          "internalType": "address",
          "name": "newOwner",
          "type": "address"
        }
      ],
      "name": "transferOwnership",
      "outputs": [],
      "stateMutability": "nonpayable",
      "type": "function"
    },
    {
      "inputs": [],
      "name": "withdraw",
      "outputs": [],
      "stateMutability": "nonpayable",
      "type": "function"
    },
    {
      "stateMutability": "payable",
      "type": "receive"
    }
  ],
  "bytecode": "0x60806040523480156200001157600080fd5b506040518060400160405280600e81526020017f43727970746f6c796d7069616e730000000000000000000000000000000000008152506040518060400160405280600581526020017f4f4c594d5000000000000000000000000000000000000000000000000000000081525081600090805190602001906200009692919062000171565b508060019080519060200190620000af92919062000171565b5050506000620000c46200016960201b60201c565b905080600660006101000a81548173ffffffffffffffffffffffffffffffffffffffff021916908373ffffffffffffffffffffffffffffffffffffffff1602179055508073ffffffffffffffffffffffffffffffffffffffff16600073ffffffffffffffffffffffffffffffffffffffff167f8be0079c531659141344cd1fd0a4f28419497f9722a3daafe3b4186f6b6457e060405160405180910390a35062000286565b600033905090565b8280546200017f9062000221565b90600052602060002090601f016020900481019282620001a35760008555620001ef565b82601f10620001be57805160ff1916838001178555620001ef565b82800160010185558215620001ef579182015b82811115620001ee578251825591602001919060010190620001d1565b5b509050620001fe919062000202565b5090565b5b808211156200021d57600081600090555060010162000203565b5090565b600060028204905060018216806200023a57607f821691505b6020821081141562000251576200025062000257565b5b50919050565b7f4e487b7100000000000000000000000000000000000000000000000000000000600052602260045260246000fd5b6139fb80620002966000396000f3fe6080604052600436106101c65760003560e01c806370a08231116100f7578063c2229fea11610095578063db2e1eed11610064578063db2e1eed1461064d578063e985e9c514610678578063ecfc7ecc146106b5578063f2fde38b146106bf576101cd565b8063c2229fea14610593578063c87b56dd146105be578063cda4beef146105fb578063ce9c7c0d14610624576101cd565b80638da5cb5b116100d15780638da5cb5b146104eb57806395d89b4114610516578063a22cb46514610541578063b88d4fde1461056a576101cd565b806370a082311461046c578063714cff56146104a9578063715018a6146104d4576101cd565b80632ad71573116101645780633e109a191161013e5780633e109a191461039a57806342842e0e146103c5578063571a26a0146103ee5780636352211e1461042f576101cd565b80632ad715731461032f578063379607f51461035a5780633ccfd60b14610383576101cd565b8063095ea7b3116101a0578063095ea7b31461027757806312874688146102a0578063150b7a02146102c957806323b872dd14610306576101cd565b806301ffc9a7146101d257806306fdde031461020f578063081812fc1461023a576101cd565b366101cd57005b600080fd5b3480156101de57600080fd5b506101f960048036038101906101f49190612952565b6106e8565b6040516102069190613232565b60405180910390f35b34801561021b57600080fd5b506102246107ca565b6040516102319190613268565b60405180910390f35b34801561024657600080fd5b50610261600480360381019061025c91906129a4565b61085c565b60405161026e91906131cb565b60405180910390f35b34801561028357600080fd5b5061029e60048036038101906102999190612916565b6108e1565b005b3480156102ac57600080fd5b506102c760048036038101906102c291906129a4565b6109f9565b005b3480156102d557600080fd5b506102f060048036038101906102eb91906127df565b610a7f565b6040516102fd919061324d565b60405180910390f35b34801561031257600080fd5b5061032d60048036038101906103289190612790565b610aad565b005b34801561033b57600080fd5b50610344610b0d565b60405161035191906134ca565b60405180910390f35b34801561036657600080fd5b50610381600480360381019061037c91906129a4565b610b19565b005b34801561038f57600080fd5b50610398610be4565b005b3480156103a657600080fd5b506103af610cd9565b6040516103bc91906134ca565b60405180910390f35b3480156103d157600080fd5b506103ec60048036038101906103e79190612790565b610cdf565b005b3480156103fa57600080fd5b50610415600480360381019061041091906129a4565b610cff565b6040516104269594939291906134e5565b60405180910390f35b34801561043b57600080fd5b50610456600480360381019061045191906129a4565b610d65565b60405161046391906131cb565b60405180910390f35b34801561047857600080fd5b50610493600480360381019061048e919061272b565b610e17565b6040516104a091906134ca565b60405180910390f35b3480156104b557600080fd5b506104be610ecf565b6040516104cb91906134ca565b60405180910390f35b3480156104e057600080fd5b506104e9610edb565b005b3480156104f757600080fd5b50610500611018565b60405161050d91906131cb565b60405180910390f35b34801561052257600080fd5b5061052b611042565b6040516105389190613268565b60405180910390f35b34801561054d57600080fd5b50610568600480360381019061056391906128da565b6110d4565b005b34801561057657600080fd5b50610591600480360381019061058c919061285f565b611255565b005b34801561059f57600080fd5b506105a86112b7565b6040516105b591906134ca565b60405180910390f35b3480156105ca57600080fd5b506105e560048036038101906105e091906129a4565b61135e565b6040516105f29190613268565b60405180910390f35b34801561060757600080fd5b50610622600480360381019061061d91906129cd565b611405565b005b34801561063057600080fd5b5061064b600480360381019061064691906129a4565b611608565b005b34801561065957600080fd5b5061066261168e565b60405161066f91906134ca565b60405180910390f35b34801561068457600080fd5b5061069f600480360381019061069a9190612754565b611694565b6040516106ac9190613232565b60405180910390f35b6106bd611728565b005b3480156106cb57600080fd5b506106e660048036038101906106e1919061272b565b611950565b005b60007f80ac58cd000000000000000000000000000000000000000000000000000000007bffffffffffffffffffffffffffffffffffffffffffffffffffffffff1916827bffffffffffffffffffffffffffffffffffffffffffffffffffffffff191614806107b357507f5b5e139f000000000000000000000000000000000000000000000000000000007bffffffffffffffffffffffffffffffffffffffffffffffffffffffff1916827bffffffffffffffffffffffffffffffffffffffffffffffffffffffff1916145b806107c357506107c282611afc565b5b9050919050565b6060600080546107d9906137c4565b80601f0160208091040260200160405190810160405280929190818152602001828054610805906137c4565b80156108525780601f1061082757610100808354040283529160200191610852565b820191906000526020600020905b81548152906001019060200180831161083557829003601f168201915b5050505050905090565b600061086782611b66565b6108a6576040517f08c379a000000000000000000000000000000000000000000000000000000000815260040161089d906133ea565b60405180910390fd5b6004600083815260200190815260200160002060009054906101000a900473ffffffffffffffffffffffffffffffffffffffff169050919050565b60006108ec82610d65565b90508073ffffffffffffffffffffffffffffffffffffffff168373ffffffffffffffffffffffffffffffffffffffff16141561095d576040517f08c379a00000000000000000000000000000000000000000000000000000000081526004016109549061348a565b60405180910390fd5b8073ffffffffffffffffffffffffffffffffffffffff1661097c611bd2565b73ffffffffffffffffffffffffffffffffffffffff1614806109ab57506109aa816109a5611bd2565b611694565b5b6109ea576040517f08c379a00000000000000000000000000000000000000000000000000000000081526004016109e19061336a565b60405180910390fd5b6109f48383611bda565b505050565b610a01611bd2565b73ffffffffffffffffffffffffffffffffffffffff16610a1f611018565b73ffffffffffffffffffffffffffffffffffffffff1614610a75576040517f08c379a0000000000000000000000000000000000000000000000000000000008152600401610a6c9061340a565b60405180910390fd5b80600a8190555050565b60007f150b7a023d4804d13e8c85fb27262cb750cf6ba9f9dd3bb30d90f482ceeb4b1f905095945050505050565b610abe610ab8611bd2565b82611c93565b610afd576040517f08c379a0000000000000000000000000000000000000000000000000000000008152600401610af4906134aa565b60405180910390fd5b610b08838383611d71565b505050565b60088060000154905081565b600060098281548110610b55577f4e487b7100000000000000000000000000000000000000000000000000000000600052603260045260246000fd5b906000526020600020906005020190503373ffffffffffffffffffffffffffffffffffffffff168160010160009054906101000a900473ffffffffffffffffffffffffffffffffffffffff1673ffffffffffffffffffffffffffffffffffffffff1614610bc157600080fd5b42816004015410610bd157600080fd5b610be030338360000154610cdf565b5050565b610bec611bd2565b73ffffffffffffffffffffffffffffffffffffffff16610c0a611018565b73ffffffffffffffffffffffffffffffffffffffff1614610c60576040517f08c379a0000000000000000000000000000000000000000000000000000000008152600401610c579061340a565b60405180910390fd5b600080610c6b611018565b73ffffffffffffffffffffffffffffffffffffffff1647604051610c8e906131b6565b60006040518083038185875af1925050503d8060008114610ccb576040519150601f19603f3d011682016040523d82523d6000602084013e610cd0565b606091505b50915091505050565b600a5481565b610cfa83838360405180602001604052806000815250611255565b505050565b60098181548110610d0f57600080fd5b90600052602060002090600502016000915090508060000154908060010160009054906101000a900473ffffffffffffffffffffffffffffffffffffffff16908060020154908060030154908060040154905085565b6000806002600084815260200190815260200160002060009054906101000a900473ffffffffffffffffffffffffffffffffffffffff169050600073ffffffffffffffffffffffffffffffffffffffff168173ffffffffffffffffffffffffffffffffffffffff161415610e0e576040517f08c379a0000000000000000000000000000000000000000000000000000000008152600401610e05906133aa565b60405180910390fd5b80915050919050565b60008073ffffffffffffffffffffffffffffffffffffffff168273ffffffffffffffffffffffffffffffffffffffff161415610e88576040517f08c379a0000000000000000000000000000000000000000000000000000000008152600401610e7f9061338a565b60405180910390fd5b600360008373ffffffffffffffffffffffffffffffffffffffff1673ffffffffffffffffffffffffffffffffffffffff168152602001908152602001600020549050919050565b60078060000154905081565b610ee3611bd2565b73ffffffffffffffffffffffffffffffffffffffff16610f01611018565b73ffffffffffffffffffffffffffffffffffffffff1614610f57576040517f08c379a0000000000000000000000000000000000000000000000000000000008152600401610f4e9061340a565b60405180910390fd5b600073ffffffffffffffffffffffffffffffffffffffff16600660009054906101000a900473ffffffffffffffffffffffffffffffffffffffff1673ffffffffffffffffffffffffffffffffffffffff167f8be0079c531659141344cd1fd0a4f28419497f9722a3daafe3b4186f6b6457e060405160405180910390a36000600660006101000a81548173ffffffffffffffffffffffffffffffffffffffff021916908373ffffffffffffffffffffffffffffffffffffffff160217905550565b6000600660009054906101000a900473ffffffffffffffffffffffffffffffffffffffff16905090565b606060018054611051906137c4565b80601f016020809104026020016040519081016040528092919081815260200182805461107d906137c4565b80156110ca5780601f1061109f576101008083540402835291602001916110ca565b820191906000526020600020905b8154815290600101906020018083116110ad57829003601f168201915b5050505050905090565b6110dc611bd2565b73ffffffffffffffffffffffffffffffffffffffff168273ffffffffffffffffffffffffffffffffffffffff16141561114a576040517f08c379a00000000000000000000000000000000000000000000000000000000081526004016111419061330a565b60405180910390fd5b8060056000611157611bd2565b73ffffffffffffffffffffffffffffffffffffffff1673ffffffffffffffffffffffffffffffffffffffff16815260200190815260200160002060008473ffffffffffffffffffffffffffffffffffffffff1673ffffffffffffffffffffffffffffffffffffffff16815260200190815260200160002060006101000a81548160ff0219169083151502179055508173ffffffffffffffffffffffffffffffffffffffff16611204611bd2565b73ffffffffffffffffffffffffffffffffffffffff167f17307eab39ab6107e8899845ad3d59bd9653f200f220920489ca2b5937696c31836040516112499190613232565b60405180910390a35050565b611266611260611bd2565b83611c93565b6112a5576040517f08c379a000000000000000000000000000000000000000000000000000000000815260040161129c906134aa565b60405180910390fd5b6112b184848484611fcd565b50505050565b60006112c1611bd2565b73ffffffffffffffffffffffffffffffffffffffff166112df611018565b73ffffffffffffffffffffffffffffffffffffffff1614611335576040517f08c379a000000000000000000000000000000000000000000000000000000000815260040161132c9061340a565b60405180910390fd5b60006113416007612029565b905061134d3082612037565b6113576007612055565b8091505090565b606061136982611b66565b6113a8576040517f08c379a000000000000000000000000000000000000000000000000000000000815260040161139f9061344a565b60405180910390fd5b60006113b261206b565b905060008151116113d257604051806020016040528060008152506113fd565b806113dc8461208b565b6040516020016113ed929190613192565b6040516020818303038152906040525b915050919050565b61140d611bd2565b73ffffffffffffffffffffffffffffffffffffffff1661142b611018565b73ffffffffffffffffffffffffffffffffffffffff1614611481576040517f08c379a00000000000000000000000000000000000000000000000000000000081526004016114789061340a565b60405180910390fd5b600061148d6008612029565b14806114ec57508160096114a16008612029565b815481106114d8577f4e487b7100000000000000000000000000000000000000000000000000000000600052603260045260246000fd5b906000526020600020906005020160040154105b6114f557600080fd5b6114fe83611b66565b61150757600080fd5b60096040518060a001604052808581526020013073ffffffffffffffffffffffffffffffffffffffff16815260200160008152602001848152602001610e1084611551919061366e565b8561155c91906135e7565b81525090806001815401808255809150506001900390600052602060002090600502016000909190919091506000820151816000015560208201518160010160006101000a81548173ffffffffffffffffffffffffffffffffffffffff021916908373ffffffffffffffffffffffffffffffffffffffff16021790555060408201518160020155606082015181600301556080820151816004015550506116036008612055565b505050565b611610611bd2565b73ffffffffffffffffffffffffffffffffffffffff1661162e611018565b73ffffffffffffffffffffffffffffffffffffffff1614611684576040517f08c379a000000000000000000000000000000000000000000000000000000000815260040161167b9061340a565b60405180910390fd5b80600b8190555050565b600b5481565b6000600560008473ffffffffffffffffffffffffffffffffffffffff1673ffffffffffffffffffffffffffffffffffffffff16815260200190815260200160002060008373ffffffffffffffffffffffffffffffffffffffff1673ffffffffffffffffffffffffffffffffffffffff16815260200190815260200160002060009054906101000a900460ff16905092915050565b6000600960016117386008612029565b61174291906136c8565b81548110611779577f4e487b7100000000000000000000000000000000000000000000000000000000600052603260045260246000fd5b9060005260206000209060050201905080600301544210156117d0576040517f08c379a00000000000000000000000000000000000000000000000000000000081526004016117c79061334a565b60405180910390fd5b80600401544210611816576040517f08c379a000000000000000000000000000000000000000000000000000000000815260040161180d9061334a565b60405180910390fd5b600a54816002015461182891906135e7565b3411611869576040517f08c379a00000000000000000000000000000000000000000000000000000000081526004016118609061346a565b60405180910390fd5b6000808260010160009054906101000a900473ffffffffffffffffffffffffffffffffffffffff1673ffffffffffffffffffffffffffffffffffffffff1683600201546040516118b8906131b6565b60006040518083038185875af1925050503d80600081146118f5576040519150601f19603f3d011682016040523d82523d6000602084013e6118fa565b606091505b5091509150338360010160006101000a81548173ffffffffffffffffffffffffffffffffffffffff021916908373ffffffffffffffffffffffffffffffffffffffff160217905550348360020181905550505050565b611958611bd2565b73ffffffffffffffffffffffffffffffffffffffff16611976611018565b73ffffffffffffffffffffffffffffffffffffffff16146119cc576040517f08c379a00000000000000000000000000000000000000000000000000000000081526004016119c39061340a565b60405180910390fd5b600073ffffffffffffffffffffffffffffffffffffffff168173ffffffffffffffffffffffffffffffffffffffff161415611a3c576040517f08c379a0000000000000000000000000000000000000000000000000000000008152600401611a33906132aa565b60405180910390fd5b8073ffffffffffffffffffffffffffffffffffffffff16600660009054906101000a900473ffffffffffffffffffffffffffffffffffffffff1673ffffffffffffffffffffffffffffffffffffffff167f8be0079c531659141344cd1fd0a4f28419497f9722a3daafe3b4186f6b6457e060405160405180910390a380600660006101000a81548173ffffffffffffffffffffffffffffffffffffffff021916908373ffffffffffffffffffffffffffffffffffffffff16021790555050565b60007f01ffc9a7000000000000000000000000000000000000000000000000000000007bffffffffffffffffffffffffffffffffffffffffffffffffffffffff1916827bffffffffffffffffffffffffffffffffffffffffffffffffffffffff1916149050919050565b60008073ffffffffffffffffffffffffffffffffffffffff166002600084815260200190815260200160002060009054906101000a900473ffffffffffffffffffffffffffffffffffffffff1673ffffffffffffffffffffffffffffffffffffffff1614159050919050565b600033905090565b816004600083815260200190815260200160002060006101000a81548173ffffffffffffffffffffffffffffffffffffffff021916908373ffffffffffffffffffffffffffffffffffffffff160217905550808273ffffffffffffffffffffffffffffffffffffffff16611c4d83610d65565b73ffffffffffffffffffffffffffffffffffffffff167f8c5be1e5ebec7d5bd14f71427d1e84f3dd0314c0f7b2291e5b200ac8c7c3b92560405160405180910390a45050565b6000611c9e82611b66565b611cdd576040517f08c379a0000000000000000000000000000000000000000000000000000000008152600401611cd49061332a565b60405180910390fd5b6000611ce883610d65565b90508073ffffffffffffffffffffffffffffffffffffffff168473ffffffffffffffffffffffffffffffffffffffff161480611d5757508373ffffffffffffffffffffffffffffffffffffffff16611d3f8461085c565b73ffffffffffffffffffffffffffffffffffffffff16145b80611d685750611d678185611694565b5b91505092915050565b8273ffffffffffffffffffffffffffffffffffffffff16611d9182610d65565b73ffffffffffffffffffffffffffffffffffffffff1614611de7576040517f08c379a0000000000000000000000000000000000000000000000000000000008152600401611dde9061342a565b60405180910390fd5b600073ffffffffffffffffffffffffffffffffffffffff168273ffffffffffffffffffffffffffffffffffffffff161415611e57576040517f08c379a0000000000000000000000000000000000000000000000000000000008152600401611e4e906132ea565b60405180910390fd5b611e62838383612238565b611e6d600082611bda565b6001600360008573ffffffffffffffffffffffffffffffffffffffff1673ffffffffffffffffffffffffffffffffffffffff1681526020019081526020016000206000828254611ebd91906136c8565b925050819055506001600360008473ffffffffffffffffffffffffffffffffffffffff1673ffffffffffffffffffffffffffffffffffffffff1681526020019081526020016000206000828254611f1491906135e7565b92505081905550816002600083815260200190815260200160002060006101000a81548173ffffffffffffffffffffffffffffffffffffffff021916908373ffffffffffffffffffffffffffffffffffffffff160217905550808273ffffffffffffffffffffffffffffffffffffffff168473ffffffffffffffffffffffffffffffffffffffff167fddf252ad1be2c89b69c2b068fc378daa952ba7f163c4a11628f55a4df523b3ef60405160405180910390a4505050565b611fd8848484611d71565b611fe48484848461223d565b612023576040517f08c379a000000000000000000000000000000000000000000000000000000000815260040161201a9061328a565b60405180910390fd5b50505050565b600081600001549050919050565b6120518282604051806020016040528060008152506123d4565b5050565b6001816000016000828254019250508190555050565b60606040518060600160405280602c815260200161399a602c9139905090565b606060008214156120d3576040518060400160405280600181526020017f30000000000000000000000000000000000000000000000000000000000000008152509050612233565b600082905060005b600082146121055780806120ee906137f6565b915050600a826120fe919061363d565b91506120db565b60008167ffffffffffffffff811115612147577f4e487b7100000000000000000000000000000000000000000000000000000000600052604160045260246000fd5b6040519080825280601f01601f1916602001820160405280156121795781602001600182028036833780820191505090505b5090505b6000851461222c5760018261219291906136c8565b9150600a856121a1919061383f565b60306121ad91906135e7565b60f81b8183815181106121e9577f4e487b7100000000000000000000000000000000000000000000000000000000600052603260045260246000fd5b60200101907effffffffffffffffffffffffffffffffffffffffffffffffffffffffffffff1916908160001a905350600a85612225919061363d565b945061217d565b8093505050505b919050565b505050565b600061225e8473ffffffffffffffffffffffffffffffffffffffff1661242f565b156123c7578373ffffffffffffffffffffffffffffffffffffffff1663150b7a02612287611bd2565b8786866040518563ffffffff1660e01b81526004016122a994939291906131e6565b602060405180830381600087803b1580156122c357600080fd5b505af19250505080156122f457506040513d601f19601f820116820180604052508101906122f1919061297b565b60015b612377573d8060008114612324576040519150601f19603f3d011682016040523d82523d6000602084013e612329565b606091505b5060008151141561236f576040517f08c379a00000000000000000000000000000000000000000000000000000000081526004016123669061328a565b60405180910390fd5b805181602001fd5b63150b7a0260e01b7bffffffffffffffffffffffffffffffffffffffffffffffffffffffff1916817bffffffffffffffffffffffffffffffffffffffffffffffffffffffff1916149150506123cc565b600190505b949350505050565b6123de8383612442565b6123eb600084848461223d565b61242a576040517f08c379a00000000000000000000000000000000000000000000000000000000081526004016124219061328a565b60405180910390fd5b505050565b600080823b905060008111915050919050565b600073ffffffffffffffffffffffffffffffffffffffff168273ffffffffffffffffffffffffffffffffffffffff1614156124b2576040517f08c379a00000000000000000000000000000000000000000000000000000000081526004016124a9906133ca565b60405180910390fd5b6124bb81611b66565b156124fb576040517f08c379a00000000000000000000000000000000000000000000000000000000081526004016124f2906132ca565b60405180910390fd5b61250760008383612238565b6001600360008473ffffffffffffffffffffffffffffffffffffffff1673ffffffffffffffffffffffffffffffffffffffff168152602001908152602001600020600082825461255791906135e7565b92505081905550816002600083815260200190815260200160002060006101000a81548173ffffffffffffffffffffffffffffffffffffffff021916908373ffffffffffffffffffffffffffffffffffffffff160217905550808273ffffffffffffffffffffffffffffffffffffffff16600073ffffffffffffffffffffffffffffffffffffffff167fddf252ad1be2c89b69c2b068fc378daa952ba7f163c4a11628f55a4df523b3ef60405160405180910390a45050565b600061262361261e84613569565b613538565b90508281526020810184848401111561263b57600080fd5b612646848285613782565b509392505050565b60008135905061265d8161393d565b92915050565b60008135905061267281613954565b92915050565b6000813590506126878161396b565b92915050565b60008151905061269c8161396b565b92915050565b60008083601f8401126126b457600080fd5b8235905067ffffffffffffffff8111156126cd57600080fd5b6020830191508360018202830111156126e557600080fd5b9250929050565b600082601f8301126126fd57600080fd5b813561270d848260208601612610565b91505092915050565b60008135905061272581613982565b92915050565b60006020828403121561273d57600080fd5b600061274b8482850161264e565b91505092915050565b6000806040838503121561276757600080fd5b60006127758582860161264e565b92505060206127868582860161264e565b9150509250929050565b6000806000606084860312156127a557600080fd5b60006127b38682870161264e565b93505060206127c48682870161264e565b92505060406127d586828701612716565b9150509250925092565b6000806000806000608086880312156127f757600080fd5b60006128058882890161264e565b95505060206128168882890161264e565b945050604061282788828901612716565b935050606086013567ffffffffffffffff81111561284457600080fd5b612850888289016126a2565b92509250509295509295909350565b6000806000806080858703121561287557600080fd5b60006128838782880161264e565b94505060206128948782880161264e565b93505060406128a587828801612716565b925050606085013567ffffffffffffffff8111156128c257600080fd5b6128ce878288016126ec565b91505092959194509250565b600080604083850312156128ed57600080fd5b60006128fb8582860161264e565b925050602061290c85828601612663565b9150509250929050565b6000806040838503121561292957600080fd5b60006129378582860161264e565b925050602061294885828601612716565b9150509250929050565b60006020828403121561296457600080fd5b600061297284828501612678565b91505092915050565b60006020828403121561298d57600080fd5b600061299b8482850161268d565b91505092915050565b6000602082840312156129b657600080fd5b60006129c484828501612716565b91505092915050565b6000806000606084860312156129e257600080fd5b60006129f086828701612716565b9350506020612a0186828701612716565b9250506040612a1286828701612716565b9150509250925092565b612a258161370e565b82525050565b612a34816136fc565b82525050565b612a4381613720565b82525050565b612a528161372c565b82525050565b6000612a6382613599565b612a6d81856135af565b9350612a7d818560208601613791565b612a868161392c565b840191505092915050565b6000612a9c826135a4565b612aa681856135cb565b9350612ab6818560208601613791565b612abf8161392c565b840191505092915050565b6000612ad5826135a4565b612adf81856135dc565b9350612aef818560208601613791565b80840191505092915050565b6000612b086032836135cb565b91507f4552433732313a207472616e7366657220746f206e6f6e20455243373231526560008301527f63656976657220696d706c656d656e74657200000000000000000000000000006020830152604082019050919050565b6000612b6e6026836135cb565b91507f4f776e61626c653a206e6577206f776e657220697320746865207a65726f206160008301527f64647265737300000000000000000000000000000000000000000000000000006020830152604082019050919050565b6000612bd4601c836135cb565b91507f4552433732313a20746f6b656e20616c7265616479206d696e746564000000006000830152602082019050919050565b6000612c146024836135cb565b91507f4552433732313a207472616e7366657220746f20746865207a65726f2061646460008301527f72657373000000000000000000000000000000000000000000000000000000006020830152604082019050919050565b6000612c7a6019836135cb565b91507f4552433732313a20617070726f766520746f2063616c6c6572000000000000006000830152602082019050919050565b6000612cba602c836135cb565b91507f4552433732313a206f70657261746f7220717565727920666f72206e6f6e657860008301527f697374656e7420746f6b656e00000000000000000000000000000000000000006020830152604082019050919050565b6000612d206022836135cb565b91507f42696420647572696e6720616e20696e76616c69642074696d6520706572696f60008301527f642e0000000000000000000000000000000000000000000000000000000000006020830152604082019050919050565b6000612d866038836135cb565b91507f4552433732313a20617070726f76652063616c6c6572206973206e6f74206f7760008301527f6e6572206e6f7220617070726f76656420666f7220616c6c00000000000000006020830152604082019050919050565b6000612dec602a836135cb565b91507f4552433732313a2062616c616e636520717565727920666f7220746865207a6560008301527f726f2061646472657373000000000000000000000000000000000000000000006020830152604082019050919050565b6000612e526029836135cb565b91507f4552433732313a206f776e657220717565727920666f72206e6f6e657869737460008301527f656e7420746f6b656e00000000000000000000000000000000000000000000006020830152604082019050919050565b6000612eb86020836135cb565b91507f4552433732313a206d696e7420746f20746865207a65726f20616464726573736000830152602082019050919050565b6000612ef8602c836135cb565b91507f4552433732313a20617070726f76656420717565727920666f72206e6f6e657860008301527f697374656e7420746f6b656e00000000000000000000000000000000000000006020830152604082019050919050565b6000612f5e6020836135cb565b91507f4f776e61626c653a2063616c6c6572206973206e6f7420746865206f776e65726000830152602082019050919050565b6000612f9e6029836135cb565b91507f4552433732313a207472616e73666572206f6620746f6b656e2074686174206960008301527f73206e6f74206f776e00000000000000000000000000000000000000000000006020830152604082019050919050565b6000613004602f836135cb565b91507f4552433732314d657461646174613a2055524920717565727920666f72206e6f60008301527f6e6578697374656e7420746f6b656e00000000000000000000000000000000006020830152604082019050919050565b600061306a6014836135cb565b91507f426964206e6f74206869676820656e6f7567682e0000000000000000000000006000830152602082019050919050565b60006130aa6021836135cb565b91507f4552433732313a20617070726f76616c20746f2063757272656e74206f776e6560008301527f72000000000000000000000000000000000000000000000000000000000000006020830152604082019050919050565b60006131106000836135c0565b9150600082019050919050565b600061312a6031836135cb565b91507f4552433732313a207472616e736665722063616c6c6572206973206e6f74206f60008301527f776e6572206e6f7220617070726f7665640000000000000000000000000000006020830152604082019050919050565b61318c81613778565b82525050565b600061319e8285612aca565b91506131aa8284612aca565b91508190509392505050565b60006131c182613103565b9150819050919050565b60006020820190506131e06000830184612a2b565b92915050565b60006080820190506131fb6000830187612a2b565b6132086020830186612a2b565b6132156040830185613183565b81810360608301526132278184612a58565b905095945050505050565b60006020820190506132476000830184612a3a565b92915050565b60006020820190506132626000830184612a49565b92915050565b600060208201905081810360008301526132828184612a91565b905092915050565b600060208201905081810360008301526132a381612afb565b9050919050565b600060208201905081810360008301526132c381612b61565b9050919050565b600060208201905081810360008301526132e381612bc7565b9050919050565b6000602082019050818103600083015261330381612c07565b9050919050565b6000602082019050818103600083015261332381612c6d565b9050919050565b6000602082019050818103600083015261334381612cad565b9050919050565b6000602082019050818103600083015261336381612d13565b9050919050565b6000602082019050818103600083015261338381612d79565b9050919050565b600060208201905081810360008301526133a381612ddf565b9050919050565b600060208201905081810360008301526133c381612e45565b9050919050565b600060208201905081810360008301526133e381612eab565b9050919050565b6000602082019050818103600083015261340381612eeb565b9050919050565b6000602082019050818103600083015261342381612f51565b9050919050565b6000602082019050818103600083015261344381612f91565b9050919050565b6000602082019050818103600083015261346381612ff7565b9050919050565b600060208201905081810360008301526134838161305d565b9050919050565b600060208201905081810360008301526134a38161309d565b9050919050565b600060208201905081810360008301526134c38161311d565b9050919050565b60006020820190506134df6000830184613183565b92915050565b600060a0820190506134fa6000830188613183565b6135076020830187612a1c565b6135146040830186613183565b6135216060830185613183565b61352e6080830184613183565b9695505050505050565b6000604051905081810181811067ffffffffffffffff8211171561355f5761355e6138fd565b5b8060405250919050565b600067ffffffffffffffff821115613584576135836138fd565b5b601f19601f8301169050602081019050919050565b600081519050919050565b600081519050919050565b600082825260208201905092915050565b600081905092915050565b600082825260208201905092915050565b600081905092915050565b60006135f282613778565b91506135fd83613778565b9250827fffffffffffffffffffffffffffffffffffffffffffffffffffffffffffffffff0382111561363257613631613870565b5b828201905092915050565b600061364882613778565b915061365383613778565b9250826136635761366261389f565b5b828204905092915050565b600061367982613778565b915061368483613778565b9250817fffffffffffffffffffffffffffffffffffffffffffffffffffffffffffffffff04831182151516156136bd576136bc613870565b5b828202905092915050565b60006136d382613778565b91506136de83613778565b9250828210156136f1576136f0613870565b5b828203905092915050565b600061370782613758565b9050919050565b600061371982613758565b9050919050565b60008115159050919050565b60007fffffffff0000000000000000000000000000000000000000000000000000000082169050919050565b600073ffffffffffffffffffffffffffffffffffffffff82169050919050565b6000819050919050565b82818337600083830152505050565b60005b838110156137af578082015181840152602081019050613794565b838111156137be576000848401525b50505050565b600060028204905060018216806137dc57607f821691505b602082108114156137f0576137ef6138ce565b5b50919050565b600061380182613778565b91507fffffffffffffffffffffffffffffffffffffffffffffffffffffffffffffffff82141561383457613833613870565b5b600182019050919050565b600061384a82613778565b915061385583613778565b9250826138655761386461389f565b5b828206905092915050565b7f4e487b7100000000000000000000000000000000000000000000000000000000600052601160045260246000fd5b7f4e487b7100000000000000000000000000000000000000000000000000000000600052601260045260246000fd5b7f4e487b7100000000000000000000000000000000000000000000000000000000600052602260045260246000fd5b7f4e487b7100000000000000000000000000000000000000000000000000000000600052604160045260246000fd5b6000601f19601f8301169050919050565b613946816136fc565b811461395157600080fd5b50565b61395d81613720565b811461396857600080fd5b50565b6139748161372c565b811461397f57600080fd5b50565b61398b81613778565b811461399657600080fd5b5056fe68747470733a2f2f7777772e63727970746f6c796d7069616e732e636f6d2f6170692f746f6b656e3f69643da26469706673582212206aa9ece761da22d1b9c34b5776f16a5b197cd4462eef88bb2d069836124b322664736f6c63430008000033",
  "linkReferences": {},
  "deployedLinkReferences": {}
}